:100000000C9480000C94A2030C947B030C94A80025
:100010000C94A8000C94A8000C94A8000C94A800C0
:100020000C94A8000C94A8000C94A8000C94A800B0
:100030000C94A8000C94A8000C94A8000C94A800A0
:100040000C9431030C94A8000C94FF020C94D90278
:100050000C94A8000C94A8000C94A8000C94A80080
:100060000C94A8000C94A8000000000024002700B5
:100070002A0000000000250028002B0004040404CE
:100080000404040402020202020203030303030342
:10009000010204081020408001020408102001021F
:1000A00004081020000000080002010000030407FB
:1000B00000000000000000002200496E76616C69BB
:1000C000642043524331363A2022002200556E6BA1
:1000D0006E6F776E20436F6D6D616E643A20220003
:1000E000717569657400736972656E006C6F636B1E
:1000F0006F757400617574686F72697A6500C90301
:1001000011241FBECFEFD8E0DEBFCDBF22E0ACE3AD
:10011000B1E001C01D92A833B207E1F711E0A0E001
:10012000B1E0E6E2F7E102C005900D92AC33B10711
:10013000D9F710E0C0E8D0E004C02197FE010E948A
:10014000D308CF37D107C9F70E94FA030C94910B5B
:100150000C94000080918D0190918E0101969093F6
:100160008E0180938D0181E08093900108958091AC
:100170008D0190918E01019690938E0180938D0157
:1001800081E080938F010895CF92DF92EF92FF92EA
:100190000F931F93CF93DF936C017A018B01C0E023
:1001A000D0E0CE15DF0581F0D8016D918D01D6012B
:1001B000ED91FC910190F081E02DC6010995892B0C
:1001C00011F02196EECF7E01C701DF91CF911F91F3
:1001D0000F91FF90EF90DF90CF900895089580E009
:1001E00090E00895FC01538D448D252F30E0842F3D
:1001F00090E0821B930B541710F0CF96089501974F
:100200000895FC01918D828D981761F0828DDF0138
:10021000A80FB11D5D968C91928D9F5F9F73928FF9
:1002200090E008958FEF9FEF0895FC01918D828DEE
:10023000981731F0828DE80FF11D858D90E00895BB
:100240008FEF9FEF0895FC01918D228D892F90E013
:10025000805C9F4F821B91098F739927089587E9CE
:1002600091E00E94230121E0892B09F420E0822FF4
:100270000895FC01848DDF01A80FB11DA35ABF4F63
:100280002C91848D90E001968F739927848FA68995
:10029000B7892C93A089B1898C91837080648C93E9
:1002A000938D848D981306C00288F389E02D808198
:1002B0008F7D80830895EF92FF920F931F93CF93CA
:1002C000DF93EC0181E0888F9B8D8C8D981305C0A6
:1002D000E889F989808185FD26C0F62E0B8D10E016
:1002E0000F5F1F4F0F731127E02E8C8DE8120CC08B
:1002F0000FB607FCFACFE889F989808185FFF5CF31
:10030000CE010E943901F1CF8B8DFE01E80FF11D66
:10031000E35AFF4FF0829FB7F8940B8FEA89FB896D
:10032000808180620AC09FB7F894EE89FF8960835C
:10033000E889F98980818370806480839FBF81E030
:1003400090E0DF91CF911F910F91FF90EF90089572
:100350000F931F93CF93DF938C01C0E0D0E0F8019F
:10036000EC0FFD1F6491662341F087E991E00E9444
:100370005B01892B11F02196F2CFCE01DF91CF9155
:100380001F910F910895CF93DF93EC01888D8823FF
:10039000C9F0EA89FB89808185FD05C0A889B989F2
:1003A0008C9186FD0FC00FB607FCF5CF808185FFCD
:1003B000F2CFA889B9898C9185FFEDCFCE010E943B
:1003C0003901E7CFDF91CF91089580E090E0892B4C
:1003D00029F00E942F0181110C940000089590E0F3
:1003E000FC01EC55FF4F2491FC01E057FF4F349185
:1003F000FC01E458FF4FE491EE2309F43CC02223B2
:1004000039F1233091F038F42130A9F0223001F590
:1004100084B58F7D12C0273091F02830A1F02430B0
:10042000B9F4809180008F7D03C0809180008F7728
:10043000809380000DC084B58F7784BD09C0809102
:10044000B0008F7703C08091B0008F7D8093B000A3
:10045000F0E0EE0FFF1FEE58FF4FA591B4919FB74C
:10046000F894611104C08C913095382302C0EC914E
:100470003E2B3C939FBF0895CF93DF9390E0FC0108
:10048000E057FF4F2491FC01E458FF4F84918823EB
:1004900061F190E0880F991FFC01E859FF4FC59169
:1004A000D491FC01EE58FF4FA591B491611109C0A0
:1004B0009FB7F8948881209582238883EC912E231E
:1004C0000BC0623061F49FB7F8948881322F309569
:1004D00083238883EC912E2B2C939FBF06C08FB76C
:1004E000F894E8812E2B28838FBFDF91CF91089558
:1004F0003FB7F89480913D0190913E01A0913F015A
:10050000B091400126B5A89B05C02F3F19F0019678
:10051000A11DB11D3FBFBA2FA92F982F8827820F89
:10052000911DA11DB11DBC01CD0142E0660F771FD9
:10053000881F991F4A95D1F708950895009769F08B
:10054000FC0101900020E9F73197AF01481B590BDE
:10055000BC0187E991E00C94C40080E090E008952C
:10056000CF93DF930E949E02EC0186E191E00E940E
:100570009E028C0F9D1FDF91CF91089589E191E03C
:100580000E94B00260E08DE00C943C02CF93DF93B8
:10059000682F87E991E00E945B01EC0186E191E020
:1005A0000E949E028C0F9D1FDF91CF9108950E94A3
:1005B000D9081F920F920FB60F9211242F933F93D9
:1005C0004F935F936F937F938F939F93AF93BF935B
:1005D000EF93FF9387E991E00E943901FF91EF913A
:1005E000BF91AF919F918F917F916F915F914F914B
:1005F0003F912F910F900FBE0F901F9018951F9253
:100600000F920FB60F9211242F938F939F93EF9316
:10061000FF93E091A701F091A8018081E091AD01E5
:10062000F091AE0182FD12C090818091B0018F5F88
:100630008F732091B101821751F0E091B001F0E089
:10064000E956FE4F958F8093B00101C08081FF91E4
:10065000EF919F918F912F910F900FBE0F901F9050
:1006600018951F920F920FB60F9211242F933F935C
:100670008F939F93AF93BF938091410190914201DB
:10068000A0914301B091440130913C0123E0230F3C
:100690002D3720F40196A11DB11D05C026E8230FBA
:1006A0000296A11DB11D20933C01809341019093BE
:1006B0004201A0934301B093440180913D01909188
:1006C0003E01A0913F01B09140010196A11DB11DD5
:1006D00080933D0190933E01A0933F01B093400170
:1006E000BF91AF919F918F913F912F910F900FBE2E
:1006F0000F901F9018951F920F920FB60F92112412
:100700002F933F934F935F936F937F938F939F9319
:10071000AF93BF93EF93FF93E0910201F091030138
:100720000995FF91EF91BF91AF919F918F917F912B
:100730006F915F914F913F912F910F900FBE0F904E
:100740001F9018951F920F920FB60F9211242F939E
:100750003F934F935F936F937F938F939F93AF9349
:10076000BF93EF93FF93E0910001F0910101099590
:10077000FF91EF91BF91AF919F918F917F916F9179
:100780005F914F913F912F910F900FBE0F901F904F
:100790001895E7E9F1E01382128288EE93E0A0E079
:1007A000B0E084839583A683B78388E091E091834A
:1007B000808385EC90E09587848784EC90E0978730
:1007C000868780EC90E0918B808B81EC90E0938B1E
:1007D000828B82EC90E0958B848B86EC90E0978BFB
:1007E000868B118E128E138E148E109235021092FB
:1007F00034020895CF93DF93CDB7DEB760970FB67D
:10080000F894DEBF0FBECDBF789484B5826084BDFE
:1008100084B5816084BD85B5826085BD85B5816004
:1008200085BD80916E00816080936E001092810082
:10083000809181008260809381008091810081603D
:1008400080938100809180008160809380008091FE
:10085000B10084608093B1008091B000816080938A
:10086000B00080917A00846080937A0080917A0051
:10087000826080937A0080917A00816080937A0010
:1008800080917A00806880937A001092C1000E9463
:10089000BE02E091A701F091A80182E08083E0917F
:1008A000A301F091A4011082E091A501F091A601AD
:1008B0008FEC80831092AF01E091AB01F091AC011D
:1008C00086E08083E091A901F091AA018081806196
:1008D0008083E091A901F091AA01808188608083E2
:1008E000E091A901F091AA01808180688083E09164
:1008F000A901F091AA0180818F7D80838AEA90E02E
:100900009093010180930001809169008C7F826047
:1009100080936900E89A87EB90E0909303018093BD
:10092000020180916900837F886080936900E99A61
:1009300061E08AE00E943C0261E089E00E943C02A2
:1009400060E08AE00E94EF0160E089E00E94EF0130
:10095000FF24F39410E8C12ED12C00E1E02E8E018B
:100960000F5F1F4F85E4282E81E0382E2FB7F894B3
:100970008091410190914201A0914301B0914401C5
:100980002FBF409193015091940160919501709116
:1009900096014C015D01841A950AA60AB70A24EF54
:1009A000821621E09206A104B104F0F08093930135
:1009B00090939401A0939501B09396018091920138
:1009C000882369F080919101882319F01092910198
:1009D00006C0F092910180918100826003C08091F5
:1009E00081008D7F809381008091900190918F0193
:1009F000811103C0992309F464C020918D013091C5
:100A00008E012130310531F42F2D281B292320930D
:100A10008C0153C02A31310574F12F2D281B292355
:100A200020938B01F0928A010E9478024B015C01B5
:100A3000BAE04B2E512C612C712C0E947802DC0103
:100A4000CB0188199909AA09BB09883E9340A105E1
:100A5000B10598F341E0441A51086108710868EE45
:100A6000860E63E0961EA11CB11C41145104610462
:100A7000710419F722C0A90142505109FA0157FD2A
:100A80003796A3E0F595E795AA95E1F7F195E195FD
:100A9000F109E857FE4F292FCA0168E070E00E9473
:100AA000AB0847E050E04A01881A990A01C0220FBA
:100AB0008A94EAF78081282B20831092900110926B
:100AC0008F0180918A01882309F482C020918801D6
:100AD00030E040E050E080E090E0B601082E02C037
:100AE000759567950A94E2F762237323672B11F0DB
:100AF0004F5F5F4F01968830910579F760918701CC
:100B000070E080E090E09601082E02C035952795B0
:100B10000A94E2F726233723232B11F04F5F5F4F10
:100B200001968430910579F720E030E0F601082E37
:100B300002C0F595E7950A94E2F7E623F723EF2B39
:100B400011F02F5F3F4F01968830910579F7609142
:100B5000860170E080E090E0F601082E02C0F59575
:100B6000E7950A94E2F7E623F723EF2B11F02F5FC6
:100B70003F4F01968830910579F741705527809154
:100B80008C0190E04817590769F421703327809150
:100B90008B0190E02817390709F0FEC003C083E2FB
:100BA0000E94C6021092860110928701109288015D
:100BB0001092890110928C0110928B0110928E017B
:100BC00010928D011092900110928F0110928A0163
:100BD000E0E47E2EF0EB6F2E87E991E00E94230186
:100BE000892B09F4D6C087E991E00E9401018A307F
:100BF00019F08D3009F0BFC0F10101900020E9F734
:100C00003197CF0185549140853008F49CC0E5E4CC
:100C1000F1E0A12CB12C2CEF280F30E0AF014554AE
:100C200051404217530790F44191A42668E0A50172
:100C300056954795A0FE06C05A0171E0A72670EAB6
:100C4000B72601C05A01615091F7E8CF40E150E06A
:100C5000B8018F5B9E4F0E94FD06E981FA812081D9
:100C6000211171C0A616B70609F06DC0F1010190FF
:100C70000020E9F73597108264EF70E085E491E099
:100C80000E941C08892B69F481E291E00E94B00265
:100C900061E08DE00E943C0261E08DE00E94EF0186
:100CA00062C06CEE70E085E491E00E941C08892B24
:100CB00019F40E94BE0257C066EE70E085E491E030
:100CC0000E941C08892BF9F48BE291E00E94B0028B
:100CD00080919201811147C08DE790E09093890047
:100CE0008093880090938B0080938A00EAEFF0E075
:100CF000F0938700E093860060928000E09281008C
:100D0000F092920130C060EE70E085E491E00E94C4
:100D10001C08892B69F481E391E00E94B0021092D3
:100D200080001092810010928200109292011BC0EC
:100D30008DEC90E00E94A80185E491E00E949E0263
:100D40008BEC90E00AC08AEB90E00E94A80185E459
:100D500091E00E949E0288EB90E00E94A80186E14B
:100D600091E00E949E0210928501F101872C119260
:100D70008A94E9F731CF90918501E92FF0E0EB5BA0
:100D8000FE4F80839F3308F027CF9F5F90938501AC
:100D900023CF0E94E501EACD8091860190918701E1
:100DA0002091880130918901F8018E2C11928A944A
:100DB000E9F73F932F939F938F9387E391E09F935E
:100DC0008F931F930F930E94DE08F801019000207B
:100DD000E9F731977E2E701A0FB6F894DEBF0FBE7A
:100DE000CDBF58018A2D801B871508F0D8CEF5019C
:100DF00081915F010E94C602F5CFA0E0B0E0E3E080
:100E0000F7E00C9466085C016B017A0161157105CD
:100E100019F0FB0191838083E114F10429F0C701EB
:100E20000297839708F0E5C0E5012196F50110814E
:100E3000812F90E00E941308892B11F05E01F4CFFE
:100E40001D3229F42196F501118101E007C01B3202
:100E500021F4E5012296F501118100E0E114F1048D
:100E600009F1F0E1EF16F10429F43FC010E3E114B9
:100E7000F10421F128E0E216F10401F154F4E2E07A
:100E8000EE16F10421F5812C912CA12CB0E4BB2E9F
:100E90003EC0FAE0EF16F10439F020E1E216F10469
:100EA000B1F430C0103319F1FAE0EF2EF12CACECB4
:100EB0008A2E982CA82CACE0BA2E29C078E0E72E18
:100EC000F12C812C912CA12CE0E1BE2E20C060E001
:100ED00070E080E090E897010F2C000C440B550B5C
:100EE0000E94380849015A0112C0103359F4888110
:100EF0008F7D883509F0BACF19812296026080E192
:100F0000E82EF12C812C912CA12C68E0B62E40E02B
:100F100060E070E0CB0127010F2C000C6608770819
:100F2000FE0150ED352E310E29E0231570F42FEB24
:100F3000210F2A3118F439EC332E06C02FE9210F86
:100F40002A3118F529EA322E310E232D30E02E15E4
:100F50003F05DCF447FD16C086169706A806B906BD
:100F600070F0A30192010E942808630D711D811D7C
:100F7000911D61307105810520E8920710F04FEF57
:100F800001C041E021961081CBCF202F2170C114E8
:100F9000D10471F0442329F02197F601D183C08355
:100FA00007C001FF19C02297F601D183C08314C086
:100FB00047FF12C0222329F060E070E080E090E853
:100FC00004C06FEF7FEF8FEF9FE722E230E03093B6
:100FD00037022093360209C0222381F09095809534
:100FE000709561957F4F8F4F9F4F462F372F282F3A
:100FF00012C040E030E020E090E00DC097FFF5CF58
:1010000082E290E090933702809336026FEF7FEF99
:101010008FEF9FE7EACF642F732F822FCDB7DEB714
:10102000E1E10C94820891110C942508803219F0AA
:1010300089508550C8F70895FB01DC018D9105901A
:1010400080190110D9F3990B0895992788270895DD
:10105000DB018F939F930E945A08BF91AF91A29F8B
:10106000800D911DA39F900DB29F900D11240895A6
:10107000A1E21A2EAA1BBB1BFD010DC0AA1FBB1F9C
:10108000EE1FFF1FA217B307E407F50720F0A21B0E
:10109000B30BE40BF50B661F771F881F991F1A947B
:1010A00069F760957095809590959B01AC01BD01A5
:1010B000CF0108950E949C08A59F900DB49F900DAC
:1010C000A49F800D911D112408952F923F924F925D
:1010D0005F926F927F928F929F92AF92BF92CF92C8
:1010E000DF92EF92FF920F931F93CF93DF93CDB7D1
:1010F000DEB7CA1BDB0B0FB6F894DEBF0FBECDBF49
:1011000009942A88398848885F846E847D848C8419
:101110009B84AA84B984C884DF80EE80FD800C8122
:101120001B81AA81B981CE0FD11D0FB6F894DEBF05
:101130000FBECDBFED010895A29FB001B39FC001C6
:10114000A39F700D811D1124911DB29F700D811DF3
:101150001124911D089597FB072E16F4009407D0D3
:1011600077FD09D00E94BF0807FC05D03EF490959A
:1011700081959F4F0895709561957F4F0895AA1BA3
:10118000BB1B51E107C0AA1FBB1FA617B70710F072
:10119000A61BB70B881F991F5A95A9F780959095A4
:1011A000BC01CD010895EE0FFF1F0590F491E02DD5
:1011B000099481E090E0F8940C94910BAEE0B0E0DB
:1011C000E4EEF8E00C9473080D891E8986E08C83A8
:1011D0001A8309838FEF9FE79E838D83AE01475E5D
:1011E0005F4F6F89788DCE0101960E940009EF81D3
:1011F000F885E00FF11F10822E96E4E00C948F0822
:10120000ABE0B0E0E6E0F9E00C9465086C017B012E
:101210008A01FC0117821682838181FFCCC1CE0135
:1012200001963C01F6019381F70193FD859193FFAF
:1012300081917F01882309F4BAC1853239F493FD85
:10124000859193FF81917F01853229F4B60190E069
:101250000E94F70AE7CF912C212C312CFFE1F315E6
:10126000D8F08B3279F038F4803279F08332A1F4FF
:10127000232D20611DC08D3261F0803369F4232D50
:10128000216016C0832D8260382EE32DE4603E2E4F
:101290002AC0F32DF8601DC037FC2DC020ED280FAB
:1012A0002A3040F08E32B9F436FC81C1232D2064FF
:1012B000322E19C036FE06C08AE0989E200D1124F9
:1012C000922E11C0EAE02E9E200D1124222EF32D25
:1012D000F0623F2E08C08C3621F4832D8068382EB2
:1012E00002C0883641F4F70193FD859193FF819107
:1012F0007F018111B3CF982F9F7D9554933028F4AF
:101300000C5F1F4F9FE399830DC0833631F0833705
:1013100071F0833509F059C021C0F80180818983BB
:101320000E5F1F4F88248394912C530113C0280112
:10133000F2E04F0E511CF801A080B18036FE03C0D0
:10134000692D70E002C06FEF7FEFC5010E94EC0ACB
:101350004C018201F32DFF773F2E16C0280122E0B9
:10136000420E511CF801A080B18036FE03C0692DE9
:1013700070E002C06FEF7FEFC5010E94E10A4C01EF
:10138000F32DF0683F2E820133FC1BC0822D90E0CC
:1013900088169906B0F4B60180E290E00E94F70A40
:1013A0002A94F4CFF50137FC859137FE81915F01D6
:1013B000B60190E00E94F70A21102A9421E0821AD7
:1013C00091088114910471F7E8C0843611F08936D0
:1013D00041F5F80137FE07C06081718182819381F8
:1013E0000C5F1F4F08C060817181072E000C880BB5
:1013F000990B0E5F1F4FF32DFF763F2E97FF09C00D
:1014000090958095709561957F4F8F4F9F4FF068B5
:101410003F2E2AE030E0A3010E94330B882E86186D
:1014200045C0853731F4232D2F7EB22E2AE030E0DF
:1014300025C0932D997FB92E8F36C1F018F48835C9
:1014400079F0B5C0803719F0883721F0B0C0E92FA6
:10145000E061BE2EB4FE0DC0FB2DF460BF2E09C0AE
:1014600034FE0AC0292F2660B22E06C028E030E0E4
:1014700005C020E130E002C020E132E0F801B7FE13
:1014800007C060817181828193810C5F1F4F06C00C
:101490006081718180E090E00E5F1F4FA3010E9488
:1014A000330B882E8618FB2DFF773F2E36FE0DC09E
:1014B000232D2E7FA22E891458F434FE0BC032FC4B
:1014C00009C0832D8E7EA82E05C0B82CA32C03C086
:1014D000B82C01C0B92CA4FE0FC0FE01E80DF11D0F
:1014E0008081803321F49A2D997EA92E09C0A2FE15
:1014F00006C0B394B39404C08A2D867809F0B394DF
:10150000A3FC11C0A0FE06C0B21488F4280C922CD3
:101510009B180EC0B21460F4B60180E290E00E9405
:10152000F70AB394F7CFB21418F42B1802C0982C12
:10153000212CA4FE10C0B60180E390E00E94F70ABF
:10154000A2FE17C0A1FC03C088E790E002C088E5B6
:1015500090E0B6010CC08A2D867859F0A1FE02C039
:101560008BE201C080E2A7FC8DE2B60190E00E9410
:10157000F70A891438F4B60180E390E00E94F70A74
:101580009A94F7CF8A94F301E80DF11D8081B6019A
:1015900090E00E94F70A8110F5CF222009F442CE94
:1015A000B60180E290E00E94F70A2A94F6CFF60195
:1015B0008681978102C08FEF9FEF2B96E2E10C941A
:1015C0008108FC010590615070400110D8F78095AA
:1015D00090958E0F9F1F0895FC01615070400190FF
:1015E0000110D8F7809590958E0F9F1F08950F9347
:1015F0001F93CF93DF93FB01238121FD03C08FEF66
:101600009FEF2CC022FF16C046815781248135816F
:101610004217530744F4A081B1819D012F5F3F4FD2
:10162000318320838C93268137812F5F3F4F37830F
:10163000268314C08B01EC01FB010084F185E02DB1
:101640000995892BE1F6D80116968D919C911797F3
:10165000019617969C938E931697CE01DF91CF91AA
:101660001F910F910895FA01AA27283051F12031D6
:1016700081F1E8946F936E7F6E5F7F4F8F4F9F4F26
:10168000AF4FB1E03ED0B4E03CD0670F781F891F68
:101690009A1FA11D680F791F8A1F911DA11D6A0F36
:1016A000711D811D911DA11D20D009F468943F91E9
:1016B0002AE0269F11243019305D3193DEF6CF01E8
:1016C0000895462F4770405D4193B3E00FD0C9F7AE
:1016D000F6CF462F4F70405D4A3318F0495D31FD1B
:1016E0004052419302D0A9F7EACFB4E0A69597956E
:1016F000879577956795BA95C9F700976105710544
:1017000008959B01AC010A2E06945795479537958D
:101710002795BA95C9F7620F731F841F951FA01DE7
:061720000895F894FFCFCC
:101726009D029D02000000005B01C400F200C3019F
:101736002301010115010D0A006C6F636B6F75744F
:1017460000617574686F72697A6500736972656E97
:0C17560000717569657400256C75000059
:00000001FF
